:100000000C9438010C9407060C94DC050C94B10593
:100010000C9486050C945B050C9430050C94050536
:100020000C94DA040C9469010C9469010C94690134
:100030000C9469010C9469010C9469010C94690198
:100040000C9469010C9469010C9469010C94690188
:100050000C9469010C9469010C9469010C9490044E
:100060000C9469010C945C060C9432060C946901A2
:100070000C9469010C9469010C9469010C94690158
:100080000C9469010C9469010C9469010C94690148
:100090000C9469010C9469010C9469010C94690138
:1000A0000C9469010C9469010C9469010C94690128
:1000B0000C9469010C9469010C9469010C94690118
:1000C0000C9469010C9469010C9469010C94690108
:1000D0000C9469010C9469010C9469010C946901F8
:1000E0000C9469010C94EA010C9406020C94CB0365
:1000F0000C94D5010C946D020C941A040C94F0012C
:100100000C949B020C94F1030C9492060C945504ED
:100110000C94FE010C94BF010C9410020C946B041F
:100120000C94E0010C946E020C94F8010C940C02F7
:100130000C9451030C940C040C94BA010C94DD0142
:100140000C9402020C94CC020C94CA030C94BE02D0
:100150000C94D9010C94AA020C9404030C94D101C0
:100160000C94E6010C94F40100000A0B02090C0D3A
:100170000E0807030401000000000000000000005A
:10018000000000000000000000000000000000006F
:10019000000000001211100000000000000000002C
:1001A000000000000000000000000000000000004F
:1001B0002200250028002B002E003100340002010F
:1001C0000000050108010B010000210024002700A8
:1001D0002A002D0030003300010100000401070156
:1001E0000A010505050507050808080802020202BC
:1001F0000A0A0808040404040101010101010101C3
:100200000303030303030303040707070C0C0C0C8D
:100210000C0C0C0C02020202060606060606060676
:100220000B0B0B0B0B0B0B0B010210202008081003
:100230002040102040800201020108040201010256
:10024000040810204080804020100804020180042F
:10025000020180402010080402010804020101028A
:1002600004081020408001020408102040809206FB
:1002700011241FBECFEFD1E2DEBFCDBF00E00CBF27
:1002800023E0A6E8B2E001C01D92A035B207E1F775
:1002900012E0A0E0B2E0ECE9F1E100E00BBF02C047
:1002A00007900D92A638B107D9F711E0C8E3D1E065
:1002B00000E006C021970109802FFE010E94C408BA
:1002C000C733D10780E00807A9F70E94EB060C941A
:1002D000CC080C94000090E0FC01E85DFD4F2491F7
:1002E0008E519E4FFC018491882399F090E0880FF5
:1002F000991FFC01E853FE4FA591B491FC01E25512
:10030000FE4F859194918FB7F894EC91E22BEC938A
:100310008FBF0895282F30E0F901E859FE4F9491DE
:10032000F901E85DFD4F44912E513E4FF9012491B2
:10033000222309F435C0992311F191509231F8F438
:10034000E92FF0E08827E855FE4F8F4F0C94C40842
:10035000D901DD01BA01D101D501BF01E001E601FA
:10036000EA01F001F401F801FE010202BF010602F8
:100370000C021002809180008F7780938000E22F22
:10038000F0E0EE0FFF1FE255FE4FA591B4918FB73D
:10039000F894EC91611148C040954E234C938FBF67
:1003A0000895809180008F7DE8CF80918000877FC5
:1003B000E4CF84B58F7784BDE2CF84B58F7DFBCF4A
:1003C0008091B0008F778093B000D9CF8091B0003A
:1003D0008F7DF9CF809190008F7780939000CFCF61
:1003E000809190008F7DF9CF80919000877FF5CF2D
:1003F0008091A0008F778093A000C1CF8091A00052
:100400008F7DF9CF8091A000877FF5CF809120016B
:100410008F7780932001B3CF809120018F7DF9CF1A
:1004200080912001877FF5CF4E2BB8CF3FB7F8944E
:1004300080918C0290918D02A0918E02B0918F02DA
:1004400026B5A89B05C02F3F19F00196A11DB11D2F
:100450003FBFBA2FA92F982F8827BC01CD01620F6B
:10046000711D811D911D42E0660F771F881F991F26
:100470004A95D1F708958F929F92AF92BF92CF92F3
:10048000DF92EF92FF924B015C010E9416026B011A
:100490007C010E9416026C197D098E099F09683E35
:1004A000734081059105A8F321E0821A9108A10803
:1004B000B10888EEC80E83E0D81EE11CF11C81143F
:1004C0009104A104B10429F7FF90EF90DF90CF9041
:1004D000BF90AF909F908F9008950895AF92BF9274
:1004E000CF92DF92EF92FF920F931F93CF93DF9300
:1004F0006C017B018B01040F151FEB015E01AE182F
:10050000BF08C017D10759F06991D601ED91FC9150
:100510000190F081E02DC6011995892B79F7C5016D
:10052000DF91CF911F910F91FF90EF90DF90CF90CF
:10053000BF90AF900895FC01538D448D252F30E07E
:10054000842F90E0821B930B541710F0CF960895E0
:1005500001970895FC01918D828D981761F0A28D0D
:10056000AE0FBF2FB11D5D968C91928D9F5F9F73D3
:10057000928F90E008958FEF9FEF0895FC01918D89
:10058000828D981731F0828DE80FF11D858D90E0F6
:1005900008958FEF9FEF0895FC01918D228D892F93
:1005A00090E0805C9F4F821B91098F73992708957B
:1005B00080E992E00E94CC0221E0892B09F420E03E
:1005C000822F0895FC01A48DA80FB92FB11DA35A45
:1005D000BF4F2C91848D90E001968F739927848F63
:1005E000A689B7892C93A089B1898C918370806486
:1005F0008C93938D848D981306C00288F389E02D27
:1006000080818F7D80830895EF92FF920F931F93D7
:10061000CF93DF93EC0181E0888F9B8D8C8D9813B5
:100620001AC0E889F989808185FF15C09FB7F894C1
:10063000EE89FF896083E889F9898081837080640D
:1006400080839FBF81E090E0DF91CF911F910F9158
:10065000FF90EF900895F62E0B8D10E00F5F1F4F67
:100660000F731127E02E8C8D8E110CC00FB607FC76
:10067000FACFE889F989808185FFF5CFCE010E9404
:10068000E202F1CFEB8DEC0FFD2FF11DE35AFF4F8E
:10069000F0829FB7F8940B8FEA89FB898081806292
:1006A000CFCFCF93DF93EC01888D8823B9F0AA894F
:1006B000BB89E889F9898C9185FD03C0808186FD1D
:1006C0000DC00FB607FCF7CF8C9185FFF2CF80816C
:1006D00085FFEDCFCE010E94E202E9CFDF91CF91FD
:1006E000089580E090E0892B29F00E94D8028111C2
:1006F0000E94000080E090E0892B49F080E090E0CB
:10070000892B29F00E94000081110E94000080E0E6
:1007100090E0892B49F080E090E0892B29F00E943D
:10072000000081110E94000080E090E0892B49F0D8
:1007300080E090E0892B29F00E94000081110C9448
:10074000000008950F931F93CF93DF93EC01062FC2
:10075000142F60E088890E948A019C858D859CBD4C
:100760008DBD0EBD00000DB407FEFDCF8EB51EBDC4
:1007700000000DB407FEFDCF1EB561E088890E9420
:100780008A01812FDF91CF911F910F91089540E051
:100790000C94A20308950F931F93CF93DF93EC0162
:1007A000E881F9810084F185E02D1995892BB1F05C
:1007B0006DE0CE010E94C703082F60E0CE010E94C9
:1007C000C703182F402F6DE8CE010E94A203812F8E
:1007D00090E0DF91CF911F910F9108958FEF9FEFE0
:1007E000F8CFCF93DF93EC01E881F9810084F185A4
:1007F000E02D1995892B69F08A8D9B8D01969B8F31
:100800008A8F60E0CE010E94C70390E0DF91CF9114
:1008100008958FEF9FEFFACFCF93DF93EC0163E161
:100820000E94C70390E02A8D3B8D821B930BDF91C2
:10083000CF910895AF92BF92CF92DF92FF920F9324
:100840001F93CF93DF936C015B01EA0162E20E9488
:10085000C703F82E90E09C012C0F3D1F2F3F310560
:1008600029F020F0CFEFD0E0C81BD90B8501AC0EEA
:10087000BD1E0A151B0541F0F80141918F0160E88A
:10088000C6010E94A203F5CF4C2F4F0D62EAC601AC
:100890000E94A203CE01DF91CF911F910F91FF9093
:1008A000DF90CF90BF90AF900895CF93DF931F92CA
:1008B000CDB7DEB76983DC01ED91FC910280F38155
:1008C000E02D41E050E0BE016F5F7F4F19950F9022
:1008D000DF91CF91089590E080E00895FB010190B1
:1008E0000020E9F73197AF01461B570BDC01ED9172
:1008F000FC910280F381E02D1994CF93DF93BC012A
:1009000080E992E00E946E04EC0164E372E080E909
:1009100092E00E946E048C0F9D1FDF91CF9108958D
:100920001F920F920FB60F9211242F933F938F9324
:100930009F93AF93BF938091880290918902A09179
:100940008A02B0918B023091870223E0230F2D376A
:1009500058F50196A11DB11D20938702809388024E
:1009600090938902A0938A02B0938B0280918C02AB
:1009700090918D02A0918E02B0918F020196A11DDF
:10098000B11D80938C0290938D02A0938E02B09340
:100990008F02BF91AF919F918F913F912F910F90B7
:1009A0000FBE0F901F90189526E8230F0296A11DE9
:1009B000B11DD2CF1F920F920FB60F9211240BB61A
:1009C0000F922F933F934F935F936F937F938F93E8
:1009D0009F93AF93BF93EF93FF93E0910E02F0913B
:1009E0000F021995FF91EF91BF91AF919F918F9158
:1009F0007F916F915F914F913F912F910F900BBE1F
:100A00000F900FBE0F901F9018951F920F920FB668
:100A10000F9211240BB60F922F933F934F935F9336
:100A20006F937F938F939F93AF93BF93EF93FF93B6
:100A3000E0910C02F0910D021995FF91EF91BF9199
:100A4000AF919F918F917F916F915F914F913F9166
:100A50002F910F900BBE0F900FBE0F901F90189507
:100A60001F920F920FB60F9211240BB60F922F9375
:100A70003F934F935F936F937F938F939F93AF9326
:100A8000BF93EF93FF93E0910202F0910302199557
:100A9000FF91EF91BF91AF919F918F917F916F9156
:100AA0005F914F913F912F910F900BBE0F900FBE12
:100AB0000F901F9018951F920F920FB60F9211244E
:100AC0000BB60F922F933F934F935F936F937F9348
:100AD0008F939F93AF93BF93EF93FF93E0910002A7
:100AE000F09101021995FF91EF91BF91AF919F9104
:100AF0008F917F916F915F914F913F912F910F90C7
:100B00000BBE0F900FBE0F901F9018951F920F9263
:100B10000FB60F9211240BB60F922F933F934F9362
:100B20005F936F937F938F939F93AF93BF93EF9355
:100B3000FF93E0910A02F0910B021995FF91EF915A
:100B4000BF91AF919F918F917F916F915F914F91E5
:100B50003F912F910F900BBE0F900FBE0F901F90E3
:100B600018951F920F920FB60F9211240BB60F9289
:100B70002F933F934F935F936F937F938F939F93A5
:100B8000AF93BF93EF93FF93E0910802F0910902B6
:100B90001995FF91EF91BF91AF919F918F917F91A7
:100BA0006F915F914F913F912F910F900BBE0F90DE
:100BB0000FBE0F901F9018951F920F920FB60F92B5
:100BC00011240BB60F922F933F934F935F936F9324
:100BD0007F938F939F93AF93BF93EF93FF93E09196
:100BE0000602F09107021995FF91EF91BF91AF9125
:100BF0009F918F917F916F915F914F913F912F9135
:100C00000F900BBE0F900FBE0F901F9018951F9264
:100C10000F920FB60F9211240BB60F922F933F93A2
:100C20004F935F936F937F938F939F93AF93BF93F4
:100C3000EF93FF93E0910402F09105021995FF9163
:100C4000EF91BF91AF919F918F917F916F915F9144
:100C50004F913F912F910F900BBE0F900FBE0F90B1
:100C60001F9018951F920F920FB60F9211240BB67A
:100C70000F922F933F934F935F936F937F938F9335
:100C80009F93AF93BF93EF93FF9380E992E00E940D
:100C9000E202FF91EF91BF91AF919F918F917F9170
:100CA0006F915F914F913F912F910F900BBE0F90DD
:100CB0000FBE0F901F9018951F920F920FB60F92B4
:100CC00011240BB60F922F938F939F93EF93FF9363
:100CD000E091A002F091A1028081E091A602F09142
:100CE000A70282FD1DC090818091A9028F5F8F7342
:100CF0002091AA02821741F0E091A902F0E0E057AA
:100D0000FD4F958F8093A902FF91EF919F918F9155
:100D10002F910F900BBE0F900FBE0F901F90189544
:100D20008081F2CFE0E9F2E01382128288EE93E054
:100D3000A0E0B0E084839583A683B78384E192E04A
:100D40009183808385EC90E09587848784EC90E0A4
:100D50009787868780EC90E0918B808B81EC90E088
:100D6000938B828B82EC90E0958B848B86EC90E069
:100D7000978B868B118E128E138E148EEEE2F3E01B
:100D80001382128286E292E09183808380E58487D9
:100D900081E085878DE293E0978786878AE090E0FF
:100DA000918B808B89E090E0938B828B82E090E046
:100DB000958B848B168A178A108E118E138E128E45
:100DC000158E148E178E168E11A210A21482158203
:100DD000168217820895789484B5826084BD84B5A4
:100DE000816084BD85B5826085BD85B5816085BD26
:100DF00080916E00816080936E00109281008091DE
:100E00008100826080938100809181008160809365
:100E10008100809180008160809380008091B1008A
:100E200084608093B1008091B00081608093B000B5
:100E30008091910082608093910080919100816007
:100E400080939100809190008160809390008091C8
:100E5000A10082608093A1008091A10081608093B5
:100E6000A1008091A00081608093A0008091210169
:100E70008260809321018091210181608093210112
:100E80008091200181608093200180917A008460AC
:100E900080937A0080917A00826080937A008091BA
:100EA0007A00816080937A0080917A0080688093D4
:100EB0007A001092C100E091A002F091A10282E0BC
:100EC0008083E0919C02F0919D021082E0919E024D
:100ED000F0919F028FEC80831092A802E091A4020F
:100EE000F091A50286E08083E091A202F091A30236
:100EF000808180618083E091A202F091A3028081D1
:100F000088608083E091A202F091A30280818068D2
:100F10008083E091A202F091A30280818F7D808383
:100F200087E392E00E947D048AE090E090933F0383
:100F300080933E0387E090E09093410380934003C9
:100F400082E090E090934303809342038AE00E9402
:100F50006B0161E080913E030E948A018091400311
:100F6000909141038F3F9807C1F00E946B0160E0B0
:100F7000809140030E948A016AE070E080E090E086
:100F80000E943B0261E0809140030E948A016AE076
:100F900070E080E090E00E943B02CFB7F89480912F
:100FA0008602811124C0E7E1F2E08491EDE5F2E0F0
:100FB0009491E82FF0E0EE0FFF1FE853FE4FA5914C
:100FC000B491EC91E92321F461E085E30E948A0168
:100FD00085E30E946B018CB580618CBD8CB580640B
:100FE0008CBD84E30E946B0183E30E946B018091BE
:100FF00086028F5F80938602CFBF62E48EE293E029
:101000000E94C703823129F088E492E00E947D04A7
:10101000FFCF40E861E88EE293E00E94A20380E007
:1010200096E1A6EDB6E38093440390934503A09325
:101030004603B093470346EE66E88EE293E00E94D3
:10104000A20340E067E88EE293E00E94A20340E042
:1010500068E88EE293E00E94A20340E06EE88EE230
:1010600093E00E94A20340E06FE88EE293E00E94CA
:10107000A2036CE08EE293E00E94C703482F436016
:101080006CE88EE293E00E94A20344E066EA8EE2FE
:1010900093E00E94A20344E86DEC8EE293E00E948C
:1010A000A2034BE26BE88EE293E00E94A2034FE8BA
:1010B00069E88EE293E00E94A20341E861E88EE2D3
:1010C00093E00E94A2038CE592E00E947D0487E6F3
:1010D00092E00E947D0461E08EE293E00E94C703EB
:1010E0008370833079F162E18EE293E00E94C7035E
:1010F00083FF06C048E062E98EE293E00E94A2030B
:1011000041E861E88EE293E00E94A20310924B0353
:1011100010924A036DE18EE293E00E94C703482FCC
:101120004E7F6DE98EE293E00E94A20340E06DE8FD
:101130008EE293E00E94A20340E062EA8EE293E036
:101140000E94A20369E772E08EE293E00E946E04BF
:1011500043E861E88EE293E00E94A20362E18EE23E
:1011600093E00E94C70383FFF9CF48E062E98EE273
:1011700093E00E94A20368E873E180E090E00E949F
:101180003B020E947103A3CFEE0FFF1F881F8BBF8E
:0C1190000790F691E02D1994F894FFCF21
:10119C006D026D026D026D026D026D026D026D02CB
:1011AC000000000004036E029B025103CC02AA0251
:1011BC00BE020000000055041A046B04CA030C04A0
:1011CC00F103CB030D0A004C6F5261205472616E17
:1011DC00736D697474657200476167616C206D652D
:1011EC006D756C6169204C6F526121004C6F5261BE
:1011FC00207369617021004D656E676972696D209D
:10120C00706573616E2E2E2E0048656C6C6F2057C6
:06121C006F726C6400001B
:00000001FF
